:100000000C945000189500001895000018950000F9
:10001000189500001895000018950000189500002C
:10002000189500001895000018950000189500001C
:10003000189500001895000018950000189500000C
:1000400018950000189500001895000018950000FC
:1000500018950000189500001895000018950000EC
:1000600018950000189500000F931F930BE91FE0EF
:1000700001501040E9F7000000001F910F910F930D
:100080001F930CE91FE001501040E9F70000000049
:1000900000001F910F910150104089F70000089552
:1000A0000FEF0DBF08E00EBF3A9A429A403009F4B4
:0A00B0004EE1042F10E0D8DFFCCF72
:00000001FF
